:100000000C9463000C94CB0B0C94A40B0C94F20B8B
:100010000C94F20B0C94F20B0C948B000C948B0050
:100020000C948B000C948B000C948B000C948B0024
:100030000C948B000C948B000C948B000C948B0014
:100040000C945A0B0C948B000C94280B0C94020B00
:100050000C948B000C948B000C948B000C948B00F4
:100060000C948B000C948B000000000024002700EF
:100070002A0000000008000201000003040700003D
:1000800000000000000000000000230026002900FE
:1000900000000000250028002B00040404040404D0
:1000A0000404020202020202030303030303010227
:1000B00004081020408001020408102001020408F6
:1000C0001020860C6A0C11241FBECFEFD8E0DEBFD3
:1000D000CDBF24E0A4EEB2E001C01D92A433B2076C
:1000E000E1F712E0A0E0B1E0EEE8F1E202C0059035
:1000F0000D92A43EB107D9F710E0C2E6D0E004C0EB
:100100002197FE010E94860FC136D107C9F70E94D0
:10011000990D0C94BA100C94000008950895AF92B4
:10012000BF92CF92DF92EF92FF920F931F93CF93E4
:10013000DF936C017B018B01040F151FEB015E0146
:10014000AE18BF08C017D10759F06991D601ED91DB
:10015000FC910190F081E02DC6010995892B79F77A
:10016000C501DF91CF911F910F91FF90EF90DF902C
:10017000CF90BF90AF900895FC01538D448D252FF3
:1001800030E0842F90E0821B930B541710F0CF9631
:10019000089501970895FC01918D828D981761F063
:1001A000A28DAE0FBF2FB11D5D968C91928D9F5F7A
:1001B0009F73928F90E008958FEF9FEF0895FC0159
:1001C000918D828D981731F0828DE80FF11D858D0C
:1001D00090E008958FEF9FEF0895FC01918D228D9F
:1001E000892F90E0805C9F4F821B91098F73992724
:1001F000089583E393E00E94ED0021E0892B09F448
:1002000020E0822F089580E090E0892B29F00E9461
:10021000F90081110C9400000895FC01A48DA80F31
:10022000B92FB11DA35ABF4F2C91848D90E0019638
:100230008F739927848FA689B7892C93A089B18958
:100240008C91837080648C93938D848D981306C0F9
:100250000288F389E02D80818F7D80830895EF925D
:10026000FF920F931F93CF93DF93EC0181E0888F70
:100270009B8D8C8D98131AC0E889F989808185FF40
:1002800015C09FB7F894EE89FF896083E889F989E2
:1002900080818370806480839FBF81E090E0DF91E4
:1002A000CF911F910F91FF90EF900895F62E0B8D37
:1002B00010E00F5F1F4F0F731127E02E8C8D8E11F2
:1002C0000CC00FB607FCFACFE889F989808185FF59
:1002D000F5CFCE010E940D01F1CFEB8DEC0FFD2F7C
:1002E000F11DE35AFF4FF0829FB7F8940B8FEA8914
:1002F000FB8980818062CFCFCF93DF93EC01888D23
:100300008823B9F0AA89BB89E889F9898C9185FD90
:1003100003C0808186FD0DC00FB607FCF7CF8C911E
:1003200085FFF2CF808185FFEDCFCE010E940D01C8
:10033000E9CFDF91CF91089590E0FC01EE58FF4F97
:100340002491FC01E255FF4F3491FC01E656FF4F2A
:10035000E491EE23C9F0222339F0233001F1A8F40F
:10036000213019F1223029F1F0E0EE0FFF1FE057A4
:10037000FF4FA591B4918FB7F894EC91611126C00D
:1003800030953E233C938FBF08952730A9F0283045
:10039000C9F0243049F7809180008F7D03C080919F
:1003A00080008F7780938000DFCF84B58F7784BD06
:1003B000DBCF84B58F7DFBCF8091B0008F778093AA
:1003C000B000D2CF8091B0008F7DF9CF3E2BDACF35
:1003D000CF93DF9390E0FC01E255FF4F24918656C6
:1003E0009F4FFC0184918823D1F090E0880F991FE2
:1003F000FC01E859FF4FA591B491FC01E057FF4F74
:10040000C591D49161110EC09FB7F8948C91E22FE1
:10041000E0958E238C932881E223E8839FBFDF91B0
:10042000CF9108958FB7F894EC91E22BEC938FBFA6
:10043000F6CF3FB7F89480912D0390912E03A091B1
:100440002F03B091300326B5A89B05C02F3F19F0AC
:100450000196A11DB11D3FBFBA2FA92F982F882744
:10046000BC01CD01620F711D811D911D42E0660F1F
:10047000771F881F991F4A95D1F7089508952091F5
:10048000D0033091D1032817390771F490913103CB
:1004900080913203981741F0E0913103F0E0E85188
:1004A000FD4F808190E008958FEF9FEF08950895AC
:1004B000EF92FF920F931F93CF93DF93DC015C9633
:1004C000ED90FC905D97E114F10479F481E090E007
:1004D00013969C938E93129790E080E0DF91CF91DA
:1004E0001F910F91FF90EF9008955196ED91FC911F
:1004F000529750968C915097982F90950FB75E9683
:100500002C915E97122F127021FD6095F894208136
:10051000112319F1282B2083E7012197F1F728E017
:10052000462F50E0308160FF1AC0382B3083E7013E
:100530002197F1F7BA0175956795215089F7112335
:1005400081F08081892380830FBF5C968D919C917F
:100550000197F1F781E090E0C1CF2923DCCF392367
:10056000E5CF9081892BEFCF2091D0033091D1033B
:100570002817390771F4809132032091310390E0FC
:10058000805C9F4F821B910960E470E00E943C0FE9
:10059000089590E080E008952091D0033091D10338
:1005A00028173907B9F490913103809132039817D5
:1005B00089F0E0913103F0E0E851FD4F8081209116
:1005C000310330E02F5F3F4F2F73332720933103E8
:1005D00090E008958FEF9FEF0895FC0181A592A50B
:1005E00023A534A5821B930B0895FC0175876487AE
:1005F00008950F931F93CF93DF93EC018B017D87B9
:100600006C8760E089AD0E94E80189AD9AAD012B4D
:1006100009F448C082309105A1F10397A1F18FEF51
:100620002FB7F89491E0882339F092E0813021F0DF
:1006300082E08093E70290E08091E602892B80932C
:10064000E6028091E702811103C081E08093E70216
:100650002FBF89AD9AAD82309105B9F0039761F44F
:1006600084EB97E0909303018093020180916900ED
:10067000837F80936900E99ADF91CF911F910F9159
:10068000089580E0CDCF81E0CBCF84EB97E09093CD
:10069000010180930001809169008C7F8093690043
:1006A000E89AEACF8230910511F1039761F4E99855
:1006B00081E090E0880F991FFC01E050FF4F8EE32E
:1006C00092E09183808389AD9AAD8230910599F053
:1006D000039799F08FEF9091E702923069F29FB7FC
:1006E000F894882361F08130B9F080E009C0E8987F
:1006F00090E080E0DFCF80E0EECF81E0ECCF81E0E2
:1007000080952091E60282238093E602811102C047
:100710001092E7029FBFB0CF82E0F2CF9FB7F8946C
:100720008091E502882319F081508093E502809141
:10073000E502811105C08CB58F7B8CBD1092E7025C
:100740009FBF08958091E702882361F09FB7F894D6
:100750002091E7028091E402213019F48DBB9FBF04
:1007600008958FBF08958EBD00000DB407FEFDCF24
:100770008EB508952091E702222381F03FB7F894C7
:100780002091E702213069F42DB32093E4024DB3A8
:100790002091E602209524232DBB3FBF8CBD9DBD3B
:1007A00008953093E402FACF0F931F93CF93DF9312
:1007B000EC01062F142F8DA99EA90E94BA0360E0B8
:1007C0008FA90E949C0182E00E94B303802F0E94A7
:1007D000B303812F0E94B30361E08FA90E949C01A3
:1007E000DF91CF911F910F910C94A203FF920F9371
:1007F0001F93CF93DF93EC01F62E042F122F8DA9B8
:100800009EA90E94BA0360E08FA90E949C0185E026
:100810000E94B3038F2D0E94B303802F0E94B30365
:10082000812F0E94B30361E08FA90E949C01DF9198
:10083000CF911F910F91FF900C94A2031F93CF9320
:10084000DF93EC01162F8DA99EA90E94BA0360E0E8
:100850008FA90E949C0183E00E94B303812F0E9414
:10086000B30380E00E94B303182F61E08FA90E94B8
:100870009C010E94A203812FDF91CF911F910895C7
:100880008F929F92AF92BF92CF92DF92EF92FF92A0
:100890000F931F93CF93DF93CDB7DEB7C850D140EE
:1008A0000FB6F894DEBF0FBECDBF28E031E0EAE01E
:1008B000F1E0DE01119601900D9221503040D9F700
:1008C000FC01C3ACD4ACE5ACF6ACFE01319630E033
:1008D00020E080809180A280B3808C149D04AE04BF
:1008E000BF0409F067C084809580A680B780841615
:1008F0009506A606B70609F05DC08C018BE0829FC5
:100900007001839FF00C1124F8E0EF0EF11C81E0E0
:1009100090E08C0F9D1FE80EF91EF70140816AE2FE
:10092000C8010E94D403F701418169E2C8010E9415
:10093000D403F701428168E2C8010E94D40343E076
:100940006BE2C8010E94D40340E06CE0C8010E9441
:10095000D40340E06DE0C8010E94D40340E660E6A5
:10096000C8010E94D40340E660E7C8010E94D40396
:1009700040E06FE0C8010E94D4036FE0C8010E940C
:100980001E0421E090E0811120E0822FC85FDE4F3D
:100990000FB6F894DEBF0FBECDBFDF91CF911F9190
:1009A0000F91FF90EF90DF90CF90BF90AF909F900E
:1009B0008F9008952F5F3F4F3B962831310509F006
:1009C00088CF80E090E0E2CFCF93DF93EC0140E06E
:1009D0006FE00E94D4036FE0CE010E941E0421E06C
:1009E00030E0882311F030E020E0C901DF91CF91A1
:1009F0000895CF93DF93EC0141E06FE00E94D403B0
:100A00006FE0CE010E941E0421E030E0813011F041
:100A100030E020E0C901DF91CF910895CF93DF93BB
:100A2000EC0140E46FE00E94D4036FE0CE010E942D
:100A30001E0421E030E0803411F030E020E0C901F4
:100A4000DF91CF910895CF93DF93EC0140E86FE001
:100A50000E94D4036FE0CE010E941E0421E030E02A
:100A6000803811F030E020E0C901DF91CF91089586
:100A70004F925F926F927F928F929F92AF92BF92AE
:100A8000CF92DF92EF92FF920F931F93CF93DF935A
:100A900000D000D000D0CDB7DEB79E838D834A0151
:100AA0005B016801790140E86FE00E94D4036FE0C8
:100AB0008D819E810E941E04803809F0DCC08FE188
:100AC000B8229FE1F92240E460E68D819E810E9478
:100AD000D40340E460E68D819E810E94D403260108
:100AE000370185E175946794579447948A95D1F7B7
:100AF000442D60E28D819E810E94D4031E2D1370CF
:100B00001860B701A60192E17595679557954795CD
:100B10009A95D1F725E0440F551F661F771F2A9538
:100B2000D1F74076142B412F61E28D819E810E9486
:100B3000D403BB27F7FCBA95AF2D9E2D8D2D89834D
:100B40009A83AB83BC83498162E28D819E810E943E
:100B5000D4034C2D63E28D819E810E94D40340E436
:100B600060E78D819E810E94D40340E460E78D811F
:100B70009E810E94D403442D64E28D819E810E9457
:100B8000D403412F65E28D819E810E94D403498167
:100B900066E28D819E810E94D4034C2D67E28D8197
:100BA0009E810E94D403D501C40145E1B595A79566
:100BB000979587954A95D1F7E82EB501A401E2E112
:100BC0007595679557954795EA95D1F7F5E0440FE8
:100BD000551F661F771FFA95D1F740768A2D8370CF
:100BE000F82E6894F3F8F42AD92C10E04E2D612FDA
:100BF0008D819E810E94D40361E0610F4F2D8D8114
:100C00009E810E94D40362E0610F4D2D8D819E81F3
:100C10000E94D40363E0610F482D8D819E810E9464
:100C2000D4031C5F183111F740E06FE08D819E8185
:100C30000E94D4036FE08D819E810E941E0421E0FA
:100C400090E0811120E0822F26960FB6F894DEBF47
:100C50000FBECDBFDF91CF911F910F91FF90EF900D
:100C6000DF90CF90BF90AF909F908F907F906F90CC
:100C70005F904F90089580E090E0E6CFCF92DF92B2
:100C8000EF92FF920F931F93CF93DF93EC017B01C1
:100C90008A0140E86FE00E94D4036FE0CE010E9419
:100CA0001E04803809F084C087E0F822177040E203
:100CB00060E6CE010E94D40340E260E6CE010E94CD
:100CC000D403680183E0D594C7948A95E1F74C2D4D
:100CD00060E2CE010E94D4030295000F007E402FF7
:100CE00061E2CE010E94D40340E062E2CE010E94A4
:100CF000D40340E063E2CE010E94D40340E260E707
:100D0000CE010E94D40340E260E7CE010E94D403EA
:100D10004C2D64E2CE010E94D403402F65E2CE0147
:100D20000E94D40340E066E2CE010E94D40340E07A
:100D300067E2CE010E94D403870193E015950795E1
:100D40009A95E1F7E294EE0C20EEE22210E0402FBB
:100D5000612FCE010E94D40361E0610F4E2DCE01C0
:100D60000E94D40362E0610F40E0CE010E94D403F0
:100D700063E0610F40E0CE010E94D4031C5F183194
:100D800031F740E06FE0CE010E94D4036FE0CE0166
:100D90000E941E0421E090E0811120E0822FDF916B
:100DA000CF911F910F91FF90EF90DF90CF9008951A
:100DB00080E090E0F4CF9F92AF92BF92CF92DF920B
:100DC000EF92FF920F931F93CF93DF93EC016CE2AE
:100DD0000E941E0480FD1DC0BB24B39481FD1AC077
:100DE0008FEF9FEFDC0189A39AA3ABA3BCA31DA245
:100DF0001EA21AA619A690E080E0DF91CF911F9164
:100E00000F91FF90EF90DF90CF90BF90AF909F90A9
:100E10000895B12C1B2D1295107F02E6010F602F53
:100E2000CE010E941E0483FB882780F98DA361E612
:100E3000610FCE010E941E04C82E602FCE010E94B9
:100E40001E0428E0C29E6001112490E045E09595C3
:100E500087954A95E1F7C82AD92A55E6A52EA10E0D
:100E60008DA10D2C000CEE08FF08882309F45AC050
:100E7000602FCE010E941E04982E63E6610FCE0102
:100E80000E941E04082F64E6610FCE010E941E041A
:100E9000492D50E070E060E0BA015527442744270F
:100EA00055276370772722E1CC0CDD1CEE1CFF1C5C
:100EB0002A95D1F7C82A4C295D296E297F29C02E91
:100EC000D12CDC2CCC24F12CE12C4C295D296E2971
:100ED0007F2949A35AA36BA37CA36A2DCE010E944C
:100EE0001E0486FB882780F98EA36A2DCE010E94FE
:100EF0001E048F7090E098A78FA31CA61BA62EA19E
:100F00002223D9F01AA619A641E050E001C0440FEF
:100F1000BA94EAF720E06CE2CE010E94F6038FA1BA
:100F200098A56BCFC9A2DAA2EBA2FCA2602FCE01DA
:100F30000E941E0482958170D7CF9AA789A71A595B
:100F40007E01C7018C1B9D0BEFEFEE1AFE0A29A54F
:100F50003AA582179307C4F6612FCE010E941E04A2
:100F6000F70184A71F5FEDCF6CE281EF93E00E9451
:100F70001E048823B1F081EF93E00E94DB06892BE9
:100F800081F080911A0490911B0420911C043091EF
:100F90001D04E091FD03F091FE03821B930B099564
:100FA000EACF089590E080E0089590E080E0089511
:100FB00090E080E00895CF93DF93EC01E881F98120
:100FC0000084F185E02D0995892B49F08BA59CA51E
:100FD000C80FD91F8DA590E0DF91CF9108958FEFB5
:100FE0009FEFFACFCF93DF93EC01E881F981008482
:100FF000F185E02D0995892B71F08BA59CA59C01AD
:101000002F5F3F4F3CA72BA7C80FD91F8DA590E09E
:10101000DF91CF9108958FEF9FEFFACFCF93DF93BA
:101020001F92CDB7DEB76983DC01ED91FC910280A0
:10103000F381E02D41E050E0BE016F5F7F4F0995E5
:101040000F90DF91CF910895FC018685882351F0A0
:1010500016868589968997FD02C0908F878B81E0DF
:1010600090E0089590E080E00895EF92FF920F9352
:101070001F93CF93DF93EC010E942408009709F49B
:10108000B3C04F85588969897A898B89882309F487
:101090005DC095E175956795579547959A95D1F7F8
:1010A00061E3CE010E94D4030F85188929893A890A
:1010B000D901C80132E1B595A795979587953A95DD
:1010C000D1F745E0880F991FAA1FBB1F4A95D1F79A
:1010D000422F4370482B486062E3CE010E94D40344
:1010E0004F85588969897A89452F562F672F772729
:1010F00067FD7A9563E3CE010E94D4034F8564E3D4
:10110000CE010E94D4034F898C898823C9F14064A1
:1011100065E3CE010E94D40348E060E3CE010E9463
:10112000D40310E060E3CE010E941E0483FF43C09D
:1011300060E3CE010E941E0484FFF4CF20E140E171
:101140006FE0CE010E94F60311E0ECCF83E07595CD
:101150006795579547958A95D1F761E3CE010E942F
:10116000D4034F854295440F407E62E3CE010E9436
:10117000D40340E063E3CE010E94D40340E0BFCF3C
:1011800065E3CE010E94D4037E0189E1E80EF11CE3
:1011900010E000E08F89988D081719070CF0BCCF7C
:1011A000F70141917F0166E3600FCE010E94D403F5
:1011B0000F5F1F4FEFCF112331F020E040E16FE0D0
:1011C000CE010E94F60320E044E06CE2CE010E94D2
:1011D000F60360E3CE010E941E04807731E020E038
:1011E00009F030E0832F922FDF91CF911F910F9163
:1011F000FF90EF900895FC0116868FEF9FEFDC01C2
:101200008787908BA18BB28B148A168A158A108ED1
:10121000178A81A392A3A3A3B4A316A210A617A210
:1012200012A611A614A613A681E090E00895CF920D
:10123000DF92EF92FF921F93CF93DF93EC016A014D
:101240007B010E94FB0861E08FA90E94E8011FB7A3
:10125000F8948091E502811127C0E4EAF0E08491DE
:10126000E8EBF0E09491E82FF0E0EE0FFF1FE85973
:10127000FF4FA591B491EC91E92321F461E08AE05C
:101280000E949C0161E08AE00E94E8018CB58061C7
:101290008CBD8CB580648CBD61E08DE00E94E8015E
:1012A00061E08BE00E94E8018091E5028F5F80930E
:1012B000E5021FBF8DA99EA90E94BA0360E08FA915
:1012C0000E949C0180EC0E94B30361E08FA90E9400
:1012D0009C010E94A20383E290E00197F1F740E8AD
:1012E0006FE0CE010E94D4036FE0CE010E941E0485
:1012F000803861F4B701A601CE01DF91CF911F9133
:10130000FF90EF90DF90CF900C94400490E080E04D
:10131000DF91CF911F91FF90EF90DF90CF900895D4
:101320000F931F93DC01ED91FC91068CF78DE02D5E
:101330000FEF1FEF2FEF3FE109951F910F910895D8
:10134000DC01ED91FC91028CF38DE02D4FEF57E025
:10135000099490E080E00895FB0101900020E9F7F6
:101360003197AF01461B570BDC01ED91FC910280D8
:10137000F381E02D09948F929F92AF92BF92EF92EA
:10138000FF920F931F93CF93DF93CDB7DEB7A19753
:101390000FB6F894DEBF0FBECDBF7C01FA01CB01C2
:1013A00019A2223008F42AE08E010F5D1F4F822E11
:1013B000912CB12CA12CBF01A50194010E94500FCA
:1013C000F901CA016A300CF5605DD8016E938D0198
:1013D000232B242B252B79F790E080E0109721F028
:1013E000BD01C7010E94AC09A1960FB6F894DEBFFB
:1013F0000FBECDBFDF91CF911F910F91FF90EF9066
:10140000BF90AF909F908F900895695CDECFCF9290
:10141000DF92EF92FF920F931F93CF93DF93EC0134
:101420006A017B01E881F9810190F081E02D6DE294
:1014300009958C0144275527BA014C195D096E099D
:101440007F092AE0CE010E94BB09800F911FDF9126
:10145000CF911F910F91FF90EF90DF90CF90089563
:10146000CF93DF93EC0166E672E083E393E00E94A2
:10147000AC0980911604882331F060E772E083E3C1
:1014800093E00E94AC0980911704882331F06AE749
:1014900072E083E393E00E94AC096FE772E083E3BC
:1014A00093E00E94AC0940911204509113046091A2
:1014B00014047091150420E183E393E00E94BB09BA
:1014C000409112045091130460911404709115041A
:1014D00077FF2AC082ED93E00E94070A80911704EB
:1014E000882371F161E972E083E393E00E94AC0923
:1014F0004091180450911904052E000C660B770BCF
:1015000077FF18C083E393E00E94070A68EA72E05D
:1015100083E393E00E94AC0968EA72E083E393E01E
:10152000DF91CF910C94AC092AE082ED93E00E9408
:10153000BB09D4CF2AE083E393E00E94BB09E6CF46
:101540006BEA72E083E393E00E94AC09AE01DD0F29
:10155000660B770B77FF23C083E393E00E94070AB3
:1015600068EA72E083E393E00E94AC0920911A04D8
:1015700030911B0480911C0490911D042817390799
:1015800029F281EF93E00E94F207AC01990F660BFC
:10159000770B20E183E393E00E94BB09E7CF2AE0C9
:1015A00083E393E00E94BB09DBCF0C9428100C94DA
:1015B00028100F931F93CF93DF93FC012685D0E073
:1015C000C0E02223C9F02789308DC8E0D0E0C21BDB
:1015D000D30B4C175D0708F4EA018C01C901499649
:1015E000AE01800F911F0E94B110F8018789908D84
:1015F0008C0F9D1F908F878BCE01DF91CF911F9114
:101600000F9108951F920F920FB60F9211242F93EE
:101610003F934F935F936F937F938F939F93AF937A
:10162000BF93EF93FF9383E393E00E940D01FF913B
:10163000EF91BF91AF919F918F917F916F915F914A
:101640004F913F912F910F900FBE0F901F901895C3
:101650001F920F920FB60F9211242F938F939F9387
:10166000EF93FF93E0914303F09144038081E09175
:101670004903F0914A0382FD1BC0908180914C0385
:101680008F5F8F7320914D03821741F0E0914C03DF
:10169000F0E0ED5CFC4F958F80934C03FF91EF9150
:1016A0009F918F912F910F900FBE0F901F901895C3
:1016B0008081F4CF1F920F920FB60F9211242F93B7
:1016C0003F938F939F93AF93BF9380912903909102
:1016D0002A03A0912B03B0912C033091280323E01F
:1016E000230F2D3758F50196A11DB11D2093280316
:1016F0008093290390932A03A0932B03B0932C0388
:1017000080912D0390912E03A0912F03B09130036F
:101710000196A11DB11D80932D0390932E03A093DC
:101720002F03B0933003BF91AF919F918F913F9161
:101730002F910F900FBE0F901F90189526E8230F42
:101740000296A11DB11DD2CF1F920F920FB60F921C
:1017500011242F933F934F935F936F937F938F93B6
:101760009F93AF93BF93EF93FF93E0910201F091AA
:1017700003010995FF91EF91BF91AF919F918F91D7
:101780007F916F915F914F913F912F910F900FBE7D
:101790000F901F9018951F920F920FB60F92112461
:1017A0002F933F934F935F936F937F938F939F9369
:1017B000AF93BF93EF93FF93E0910001F09101018C
:1017C0000995FF91EF91BF91AF919F918F917F917B
:1017D0006F915F914F913F912F910F900FBE0F909E
:1017E0001F9018951F920F920FB60F9211242F93EE
:1017F0003F934F935F936F937F938F939F93AF9399
:10180000BF93EF93FF93E091D003F091D103309712
:1018100049F0A685B7858585968D91FF14C09C916A
:101820008923A1F4FF91EF91BF91AF919F918F9187
:101830007F916F915F914F913F912F910F900FBECC
:101840000F901F9018959C91892361F7A389B48903
:101850009C918589809589238C93868997890197A6
:10186000F1F7608D718DA685B785558538E020E04C
:10187000CB010197F1F7822F90E095958795282F5E
:101880004C91452309F02068315091F7868D81FDF8
:1018900020958091320390E001968F7399273091C3
:1018A0003103381799F0A0913203B0E0A851BD4F31
:1018B0002C9380933203828D938D0197F1F7A38946
:1018C000B4898C919589892B8C93ACCF868D81605E
:1018D000868FF1CF88E292E09093D3038093D20376
:1018E0008091D0039091D103825D934071F4E09197
:1018F000E503F091E60390818091E70380958923C9
:1019000080831092D1031092D00308950F931F93F8
:10191000109236031092350388EE93E0A0E0B0E019
:101920008093370390933803A0933903B0933A031D
:1019300026E132E0309334032093330325EC30E08A
:101940003093400320933F0324EC30E03093420374
:101950002093410320EC30E0309344032093430371
:1019600021EC30E0309346032093450322EC30E035
:10197000309348032093470326EC30E030934A032A
:101980002093490310924C0310924D0310924E0382
:1019900010924F031092F4031092F3031092FE037F
:1019A0001092FD031092FF030FEF1FEF98010093B9
:1019B000000410930104209302043093030461E0B7
:1019C0006093040410920504109207041092060418
:1019D0001092090410920804009312041093130447
:1019E00020931404309315041092160410921704D7
:1019F000109219041092180410921B0410921A04E9
:101A000010921D0410921C041092F5031092F6031C
:101A10001092F7031092F8032AE332E03093F203B6
:101A20002093F10320E520932604609327042AE005
:101A300030E0309329042093280422E030E03093F2
:101A40002B0420932A0400E014E224EF30E00093FA
:101A50002C0410932D0420932E0430932F04109205
:101A6000D5031092D4038093D6039093D703A09309
:101A7000D803B093D90388E292E09093D303809384
:101A8000D2031092E9031092E8031092EB03109234
:101A9000EA031092ED031092EC031092EF03109200
:101AA000EE038091F0038E7F8D7F8093F003869507
:101AB0008170682786E00E949C0161E086E00E94B8
:101AC000E801E4EBF0E0E491E093E203E0EAF0E027
:101AD000E491F0E0EE0FFF1FE057FF4F85919491E6
:101AE0009093E4038093E30360E085E00E94E801C3
:101AF0008091F00381FD04C061E085E00E949C01BB
:101B000085E08093DE03E3EBF0E0E491E093DF0314
:101B1000EFE9F0E0E491F0E0EE0FFF1FEA57FF4F2E
:101B2000859194919093E1038093E0031F910F912D
:101B30000895789484B5826084BD84B5816084BD45
:101B400085B5826085BD85B5816085BD80916E005B
:101B5000816080936E00109281008091810082608C
:101B600080938100809181008160809381008091C9
:101B700080008160809380008091B10084608093B8
:101B8000B1008091B00081608093B00080917A00B4
:101B9000846080937A0080917A00826080937A00DA
:101BA00080917A00816080937A0080917A008068C9
:101BB00080937A001092C100E0914303F0914403B6
:101BC00082E08083E0913F03F09140031082E09136
:101BD0004103F09142038FEC808310924B03E0911C
:101BE0004703F091480386E08083E0914503F0913C
:101BF0004603808180618083E0914503F091460334
:101C0000808188608083E0914503F0914603808164
:101C100080688083E0914503F091460380818F7D49
:101C200080831092ED031092EC031092EB0310925C
:101C3000EA031092E9031092E8038DE991E0909392
:101C4000EF038093EE039091DE03963108F047C0D6
:101C50002DEB30E03093E9032093E8032BE931E0EA
:101C60003093EB032093EA032CE231E03093ED0351
:101C70002093EC032091680084E0983048F031E034
:101C80009E3008F430E081E001C0880F3A95EAF711
:101C9000822B809368002DE630E0983050F02BE6E0
:101CA00030E09E3030F02CE630E0963110F030E03D
:101CB00020E03093E6032093E503292F30E09830AD
:101CC00008F05FC081E001C0880F9A95EAF7809321
:101CD000E7038091EE039091EF030197F1F7809174
:101CE000EC039091ED03892B49F1E091D003F09141
:101CF000D10323E0E23DF20709F1309739F0A389DF
:101D0000B4899C918589809589238C938091F00377
:101D10008E7F8093F003109232031092310382ED94
:101D200093E09093D1038093D003E091E503F09189
:101D3000E60380819091E703892B808368EB72E052
:101D400083E393E00E94AC0968EA72E083E393E0E6
:101D50000E94AC0940E251EA67E070E081EF93E055
:101D60000E941709892BD1F46EEC72E083E393E0B3
:101D70000E94AC0968EA72E083E393E00E94AC0938
:101D8000FFCF9E3040F42850310981E001C0880F18
:101D90002A95EAF79CCF2E503109F7CF60E37AE01D
:101DA00081EF93E00E94F90244244A949FE8592E5F
:101DB00097EC692E9BE1792E22242A94322C0AE09A
:101DC00014E0C0E0D0E081E08093FF034092000483
:101DD0005092010460920204709203048093040400
:101DE0001092050430920704209206041092090410
:101DF00010920804F80128E011922A95E9F72AE0E8
:101E000040E150EF62E273E081EF93E00E94BB0992
:101E100081EF93E00E9435080E9419024B015C019A
:101E200080E1C82E87E2D82EE12CF12C0E94190205
:101E3000681979098A099B09683E734081059105F3
:101E4000A8F381E0C81AD108E108F108E8EE8E0E87
:101E5000E3E09E1EA11CB11CC114D104E104F104F5
:101E600029F7209709F4AFCF0E94F900882309F4DD
:101E7000AACF0E940000A7CF97FB072E16F400946C
:101E800007D077FD09D00E94720F07FC05D03EF401
:101E9000909581959F4F0895709561957F4F089516
:101EA000A1E21A2EAA1BBB1BFD010DC0AA1FBB1F5E
:101EB000EE1FFF1FA217B307E407F50720F0A21BD0
:101EC000B30BE40BF50B661F771F881F991F1A943D
:101ED00069F760957095809590959B01AC01BD0167
:101EE000CF010895AA1BBB1B51E107C0AA1FBB1F4E
:101EF000A617B70710F0A61BB70B881F991F5A9596
:101F0000A9F780959095BC01CD010895EE0FFF1FB4
:101F10000590F491E02D09940F931F93CF93DF93D5
:101F20008230910510F482E090E0E0913204F0916B
:101F3000330430E020E0B0E0A0E0309799F42115C0
:101F4000310509F44AC0281B390B24303105D8F576
:101F50008A819B816115710589F1FB0193838283DD
:101F6000FE0111C040815181028113814817590738
:101F7000E0F04817590799F4109761F012960C9306
:101F8000129713961C933296CF01DF91CF911F9138
:101F90000F9108950093320410933304F4CF211568
:101FA000310551F04217530738F0A901DB019A01BE
:101FB000BD01DF01F801C1CFEF01F9CF90933304E8
:101FC00080933204CDCFFE01E20FF31F81939193F2
:101FD0002250310939832883D7CF209130043091A2
:101FE0003104232B41F420910601309107013093F5
:101FF0003104209330042091040130910501211512
:10200000310541F42DB73EB74091080150910901C7
:10201000241B350BE0913004F0913104E217F307F3
:10202000A0F42E1B3F0B2817390778F0AC014E5F48
:102030005F4F2417350748F04E0F5F1F5093310450
:1020400040933004819391939FCFF0E0E0E09CCFE8
:10205000CF93DF930097E9F0FC013297138212824D
:10206000A0913204B0913304ED0130E020E01097EC
:10207000A1F420813181820F931F2091300430918F
:1020800031042817390709F061C0F0933104E09357
:102090003004DF91CF910895EA01CE17DF07E8F50C
:1020A0004A815B819E0141155105B1F7E901FB832E
:1020B000EA8349915991C40FD51FEC17FD0761F4CC
:1020C000808191810296840F951FE901998388830D
:1020D000828193819B838A83F0E0E0E012968D9168
:1020E0009C9113970097B9F52D913C911197CD01D3
:1020F0000296820F931F20913004309131042817EB
:10210000390739F6309751F51092330410923204A2
:10211000B0933104A0933004BCCFD383C2834081F9
:102120005181840F951FC817D90761F44E5F5F4F27
:1021300088819981480F591F518340838A819B81EF
:10214000938382832115310509F0B0CFF0933304D6
:10215000E09332049ECFFD01DC01C0CF13821282D6
:10216000D7CFFB01DC0102C001900D9241505040DD
:10217000D8F7089510E0C2E6D0E004C0FE010E9446
:0E218000860F2196C336D107C9F7F894FFCF1A
:10218E003E023E0200003404800000127A004042FB
:10219E000F0000800000127A0020A10700009002BC
:1021AE0000127A0090D0030000B10500127A0040B0
:1021BE000D030000B40600127A0048E8010001B1D8
:1021CE000500127A00A086010001B40600127A0002
:1021DE008038010001BF0700127A0050C3000003CF
:1021EE00B40600127A00409C000003BF0700127A6A
:1021FE0000204E000007BF0700127A0010270000D3
:10220E000FBF0700127A00881300001FBF070024BB
:10221E00F40040420F0000D0820024F40020A107F9
:10222E000000F0860024F40090D0030041F18500F8
:10223E0024F400400D030001FA870024F40048E85E
:10224E00010003F0860024F400A086010003FA8743
:10225E000024F4008038010003FF870024F40050AE
:10226E00C3000007FA870024F400409C000007FF1B
:10227E00870024F400204E00000FFF870024F40096
:10228E00102700001FFF870024F400881300003F72
:10229E00FF87000000002F018F00BC007C01ED00C5
:1022AE00CB00DF000000000058028F00A909570282
:1022BE00B402CC023F02000000000E08D90AA909A0
:1022CE005702ED02F207DB0717098E033508DB060E
:1022DE00F902A0093E069009380523050E05F904FA
:1022EE00E4048E00D50A5265636569766564200044
:1022FE00657874656E6465642000525452200070D7
:10230E0061636B6574207769746820696420307826
:10231E000020616E6420726571756573746564204A
:10232E006C656E67746820000D0A0020616E642073
:10233E006C656E677468200043414E20526563657C
:10234E00697665722043616C6C6261636B005374D5
:10235E00617274696E672043414E206661696C65D7
:04236E0064210000E6
:00000001FF
